{
    "_format": "hh-sol-artifact-1",
    "contractName": "Web3RSVP",
    "sourceName": "contracts/Web3RSVP.sol",
    "abi": [
        {
            "anonymous": false,
            "inputs": [
                {
                    "indexed": false,
                    "internalType": "bytes32",
                    "name": "eventID",
                    "type": "bytes32"
                },
                {
                    "indexed": false,
                    "internalType": "address",
                    "name": "attendeeAddress",
                    "type": "address"
                }
            ],
            "name": "ConfirmedAttendee",
            "type": "event"
        },
        {
            "anonymous": false,
            "inputs": [
                {
                    "indexed": false,
                    "internalType": "bytes32",
                    "name": "eventID",
                    "type": "bytes32"
                }
            ],
            "name": "DepositsPaidOut",
            "type": "event"
        },
        {
            "anonymous": false,
            "inputs": [
                {
                    "indexed": false,
                    "internalType": "bytes32",
                    "name": "eventID",
                    "type": "bytes32"
                },
                {
                    "indexed": false,
                    "internalType": "address",
                    "name": "creatorAddress",
                    "type": "address"
                },
                {
                    "indexed": false,
                    "internalType": "uint256",
                    "name": "eventTimestamp",
                    "type": "uint256"
                },
                {
                    "indexed": false,
                    "internalType": "uint256",
                    "name": "maxCapacity",
                    "type": "uint256"
                },
                {
                    "indexed": false,
                    "internalType": "uint256",
                    "name": "deposit",
                    "type": "uint256"
                },
                {
                    "indexed": false,
                    "internalType": "string",
                    "name": "eventDataCID",
                    "type": "string"
                }
            ],
            "name": "NewEventCreated",
            "type": "event"
        },
        {
            "anonymous": false,
            "inputs": [
                {
                    "indexed": false,
                    "internalType": "bytes32",
                    "name": "eventID",
                    "type": "bytes32"
                },
                {
                    "indexed": false,
                    "internalType": "address",
                    "name": "attendeeAddress",
                    "type": "address"
                }
            ],
            "name": "NewRSVP",
            "type": "event"
        },
        {
            "inputs": [
                {
                    "internalType": "bytes32",
                    "name": "eventId",
                    "type": "bytes32"
                }
            ],
            "name": "confirmAllAttendees",
            "outputs": [],
            "stateMutability": "nonpayable",
            "type": "function"
        },
        {
            "inputs": [
                {
                    "internalType": "bytes32",
                    "name": "eventId",
                    "type": "bytes32"
                },
                {
                    "internalType": "address",
                    "name": "attendee",
                    "type": "address"
                }
            ],
            "name": "confirmAttendee",
            "outputs": [],
            "stateMutability": "nonpayable",
            "type": "function"
        },
        {
            "inputs": [
                {
                    "internalType": "uint256",
                    "name": "eventTimestamp",
                    "type": "uint256"
                },
                {
                    "internalType": "uint256",
                    "name": "deposit",
                    "type": "uint256"
                },
                {
                    "internalType": "uint256",
                    "name": "maxCapacity",
                    "type": "uint256"
                },
                {
                    "internalType": "string",
                    "name": "eventDataCID",
                    "type": "string"
                }
            ],
            "name": "createNewEvent",
            "outputs": [],
            "stateMutability": "nonpayable",
            "type": "function"
        },
        {
            "inputs": [
                {
                    "internalType": "bytes32",
                    "name": "eventId",
                    "type": "bytes32"
                }
            ],
            "name": "createNewRSVP",
            "outputs": [],
            "stateMutability": "payable",
            "type": "function"
        },
        {
            "inputs": [
                {
                    "internalType": "bytes32",
                    "name": "",
                    "type": "bytes32"
                }
            ],
            "name": "idToEvent",
            "outputs": [
                {
                    "internalType": "bytes32",
                    "name": "eventId",
                    "type": "bytes32"
                },
                {
                    "internalType": "string",
                    "name": "eventDataCID",
                    "type": "string"
                },
                {
                    "internalType": "address",
                    "name": "eventOwner",
                    "type": "address"
                },
                {
                    "internalType": "uint256",
                    "name": "eventTimestamp",
                    "type": "uint256"
                },
                {
                    "internalType": "uint256",
                    "name": "deposit",
                    "type": "uint256"
                },
                {
                    "internalType": "uint256",
                    "name": "maxCapacity",
                    "type": "uint256"
                },
                {
                    "internalType": "bool",
                    "name": "paidOut",
                    "type": "bool"
                }
            ],
            "stateMutability": "view",
            "type": "function"
        },
        {
            "inputs": [],
            "name": "owner",
            "outputs": [
                {
                    "internalType": "address payable",
                    "name": "",
                    "type": "address"
                }
            ],
            "stateMutability": "view",
            "type": "function"
        },
        {
            "inputs": [],
            "name": "unlockTime",
            "outputs": [
                {
                    "internalType": "uint256",
                    "name": "",
                    "type": "uint256"
                }
            ],
            "stateMutability": "view",
            "type": "function"
        },
        {
            "inputs": [
                {
                    "internalType": "bytes32",
                    "name": "eventId",
                    "type": "bytes32"
                }
            ],
            "name": "withdrawUnclaimedDeposits",
            "outputs": [],
            "stateMutability": "nonpayable",
            "type": "function"
        }
    ],
    "bytecode": "0x608060405234801561001057600080fd5b5061229b806100206000396000f3fe60806040526004361061007a5760003560e01c8063797475711161004e57806379747571146101185780638da5cb5b14610141578063909ef0211461016c578063acdbe012146101af5761007a565b806292098c1461007f57806317f0165a146100a8578063251c1aa3146100c45780636dcdf2cd146100ef575b600080fd5b34801561008b57600080fd5b506100a660048036038101906100a1919061161d565b6101d8565b005b6100c260048036038101906100bd91906116db565b6103f5565b005b3480156100d057600080fd5b506100d9610663565b6040516100e69190611717565b60405180910390f35b3480156100fb57600080fd5b5061011660048036038101906101119190611790565b610669565b005b34801561012457600080fd5b5061013f600480360381019061013a91906116db565b610b43565b005b34801561014d57600080fd5b50610156610ffc565b60405161016391906117f1565b60405180910390f35b34801561017857600080fd5b50610193600480360381019061018e91906116db565b611022565b6040516101a697969594939291906118de565b60405180910390f35b3480156101bb57600080fd5b506101d660048036038101906101d191906116db565b611119565b005b600033308787876040516020016101f39594939291906119bd565b60405160208183030381529060405280519060200120905060608060405180610120016040528084815260200186868080601f016020809104026020016040519081016040528093929190818152602001838380828437600081840152601f19601f8201169050808301925050505050505081526020013373ffffffffffffffffffffffffffffffffffffffff16815260200189815260200188815260200187815260200183815260200182815260200160001515815250600260008581526020019081526020016000206000820151816000015560208201518160010190805190602001906102e492919061144b565b5060408201518160020160006101000a81548173ffffffffffffffffffffffffffffffffffffffff021916908373ffffffffffffffffffffffffffffffffffffffff160217905550606082015181600301556080820151816004015560a0820151816005015560c08201518160060190805190602001906103669291906114d1565b5060e08201518160070190805190602001906103839291906114d1565b506101008201518160080160006101000a81548160ff0219169083151502179055509050507f2553138c3f9c9008f266dbdbe9fc64f5b71e098d06ef714a190a65a8b9fc6bf383338a898b8a8a6040516103e39796959493929190611a58565b60405180910390a15050505050505050565b600060026000838152602001908152602001600020905080600401543414610452576040517f08c379a000000000000000000000000000000000000000000000000000000000815260040161044990611b0e565b60405180910390fd5b8060030154421115610499576040517f08c379a000000000000000000000000000000000000000000000000000000000815260040161049090611b7a565b60405180910390fd5b80600501548160060180549050106104e6576040517f08c379a00000000000000000000000000000000000000000000000000000000081526004016104dd90611be6565b60405180910390fd5b60005b81600601805490508160ff1610156105c0573373ffffffffffffffffffffffffffffffffffffffff16826006018260ff168154811061052b5761052a611c06565b5b9060005260206000200160009054906101000a900473ffffffffffffffffffffffffffffffffffffffff1673ffffffffffffffffffffffffffffffffffffffff1614156105ad576040517f08c379a00000000000000000000000000000000000000000000000000000000081526004016105a490611c81565b60405180910390fd5b80806105b890611cdd565b9150506104e9565b5080600601339080600181540180825580915050600190039060005260206000200160009091909190916101000a81548173ffffffffffffffffffffffffffffffffffffffff021916908373ffffffffffffffffffffffffffffffffffffffff1602179055507fb79f4240bbdd272d98e02a5db7f0cf156e5fc000961c517670a26eeeec63ed908233604051610657929190611d07565b60405180910390a15050565b60005481565b60006002600084815260200190815260200160002090508060020160009054906101000a900473ffffffffffffffffffffffffffffffffffffffff1673ffffffffffffffffffffffffffffffffffffffff163373ffffffffffffffffffffffffffffffffffffffff1614610712576040517f08c379a000000000000000000000000000000000000000000000000000000000815260040161070990611d7c565b60405180910390fd5b600080600090505b82600601805490508160ff1610156107fd578373ffffffffffffffffffffffffffffffffffffffff16836006018260ff168154811061075c5761075b611c06565b5b9060005260206000200160009054906101000a900473ffffffffffffffffffffffffffffffffffffffff1673ffffffffffffffffffffffffffffffffffffffff1614156107ea57826006018160ff16815481106107bc576107bb611c06565b5b9060005260206000200160009054906101000a900473ffffffffffffffffffffffffffffffffffffffff1691505b80806107f590611cdd565b91505061071a565b508273ffffffffffffffffffffffffffffffffffffffff168173ffffffffffffffffffffffffffffffffffffffff161461086c576040517f08c379a000000000000000000000000000000000000000000000000000000000815260040161086390611de8565b60405180910390fd5b60005b82600701805490508160ff161015610946578373ffffffffffffffffffffffffffffffffffffffff16836007018260ff16815481106108b1576108b0611c06565b5b9060005260206000200160009054906101000a900473ffffffffffffffffffffffffffffffffffffffff1673ffffffffffffffffffffffffffffffffffffffff161415610933576040517f08c379a000000000000000000000000000000000000000000000000000000000815260040161092a90611e54565b60405180910390fd5b808061093e90611cdd565b91505061086f565b50600015158260080160009054906101000a900460ff1615151461099f576040517f08c379a000000000000000000000000000000000000000000000000000000000815260040161099690611ec0565b60405180910390fd5b81600701839080600181540180825580915050600190039060005260206000200160009091909190916101000a81548173ffffffffffffffffffffffffffffffffffffffff021916908373ffffffffffffffffffffffffffffffffffffffff16021790555060008373ffffffffffffffffffffffffffffffffffffffff168360040154604051610a2e90611f11565b60006040518083038185875af1925050503d8060008114610a6b576040519150601f19603f3d011682016040523d82523d6000602084013e610a70565b606091505b5050905080610ac35782600701805480610a8d57610a8c611f26565b5b6001900381819060005260206000200160006101000a81549073ffffffffffffffffffffffffffffffffffffffff021916905590555b80610b03576040517f08c379a0000000000000000000000000000000000000000000000000000000008152600401610afa90611fa1565b60405180910390fd5b7ff8d1583a733d83bdd3ef5464129d0a95a36d62b382d31c6d0467a61f4264381b8585604051610b34929190611d07565b60405180910390a15050505050565b6000600260008381526020019081526020016000206040518061012001604052908160008201548152602001600182018054610b7e90611ff0565b80601f0160208091040260200160405190810160405280929190818152602001828054610baa90611ff0565b8015610bf75780601f10610bcc57610100808354040283529160200191610bf7565b820191906000526020600020905b815481529060010190602001808311610bda57829003601f168201915b505050505081526020016002820160009054906101000a900473ffffffffffffffffffffffffffffffffffffffff1673ffffffffffffffffffffffffffffffffffffffff1673ffffffffffffffffffffffffffffffffffffffff16815260200160038201548152602001600482015481526020016005820154815260200160068201805480602002602001604051908101604052809291908181526020018280548015610cf957602002820191906000526020600020905b8160009054906101000a900473ffffffffffffffffffffffffffffffffffffffff1673ffffffffffffffffffffffffffffffffffffffff1681526020019060010190808311610caf575b5050505050815260200160078201805480602002602001604051908101604052809291908181526020018280548015610d8757602002820191906000526020600020905b8160009054906101000a900473ffffffffffffffffffffffffffffffffffffffff1673ffffffffffffffffffffffffffffffffffffffff1681526020019060010190808311610d3d575b505050505081526020016008820160009054906101000a900460ff161515151581525050905080610100015115610df3576040517f08c379a0000000000000000000000000000000000000000000000000000000008152600401610dea9061206e565b60405180910390fd5b62093a808160600151610e06919061208e565b421015610e48576040517f08c379a0000000000000000000000000000000000000000000000000000000008152600401610e3f90612130565b60405180910390fd5b806040015173ffffffffffffffffffffffffffffffffffffffff163373ffffffffffffffffffffffffffffffffffffffff1614610eba576040517f08c379a0000000000000000000000000000000000000000000000000000000008152600401610eb19061219c565b60405180910390fd5b60008160e00151518260c0015151610ed291906121bc565b90506000826080015182610ee691906121f0565b905060018361010001901515908115158152505060003373ffffffffffffffffffffffffffffffffffffffff1682604051610f2090611f11565b60006040518083038185875af1925050503d8060008114610f5d576040519150601f19603f3d011682016040523d82523d6000602084013e610f62565b606091505b5050905080610f7e576000846101000190151590811515815250505b80610fbe576040517f08c379a0000000000000000000000000000000000000000000000000000000008152600401610fb590611fa1565b60405180910390fd5b7f393073ea1365f611c3d2f240c992960d2b99dc81715555d3fc40fc55ba80af9c85604051610fed919061224a565b60405180910390a15050505050565b600160009054906101000a900473ffffffffffffffffffffffffffffffffffffffff1681565b600260205280600052604060002060009150905080600001549080600101805461104b90611ff0565b80601f016020809104026020016040519081016040528092919081815260200182805461107790611ff0565b80156110c45780601f10611099576101008083540402835291602001916110c4565b820191906000526020600020905b8154815290600101906020018083116110a757829003601f168201915b5050505050908060020160009054906101000a900473ffffffffffffffffffffffffffffffffffffffff16908060030154908060040154908060050154908060080160009054906101000a900460ff16905087565b600060026000838152602001908152602001600020604051806101200160405290816000820154815260200160018201805461115490611ff0565b80601f016020809104026020016040519081016040528092919081815260200182805461118090611ff0565b80156111cd5780601f106111a2576101008083540402835291602001916111cd565b820191906000526020600020905b8154815290600101906020018083116111b057829003601f168201915b505050505081526020016002820160009054906101000a900473ffffffffffffffffffffffffffffffffffffffff1673ffffffffffffffffffffffffffffffffffffffff1673ffffffffffffffffffffffffffffffffffffffff168152602001600382015481526020016004820154815260200160058201548152602001600682018054806020026020016040519081016040528092919081815260200182805480156112cf57602002820191906000526020600020905b8160009054906101000a900473ffffffffffffffffffffffffffffffffffffffff1673ffffffffffffffffffffffffffffffffffffffff1681526020019060010190808311611285575b505050505081526020016007820180548060200260200160405190810160405280929190818152602001828054801561135d57602002820191906000526020600020905b8160009054906101000a900473ffffffffffffffffffffffffffffffffffffffff1673ffffffffffffffffffffffffffffffffffffffff1681526020019060010190808311611313575b505050505081526020016008820160009054906101000a900460ff1615151515815250509050806040015173ffffffffffffffffffffffffffffffffffffffff163373ffffffffffffffffffffffffffffffffffffffff16146113f5576040517f08c379a00000000000000000000000000000000000000000000000000000000081526004016113ec90611d7c565b60405180910390fd5b60005b8160c00151518160ff16101561144657611433838360c001518360ff168151811061142657611425611c06565b5b6020026020010151610669565b808061143e90611cdd565b9150506113f8565b505050565b82805461145790611ff0565b90600052602060002090601f01602090048101928261147957600085556114c0565b82601f1061149257805160ff19168380011785556114c0565b828001600101855582156114c0579182015b828111156114bf5782518255916020019190600101906114a4565b5b5090506114cd919061155b565b5090565b82805482825590600052602060002090810192821561154a579160200282015b828111156115495782518260006101000a81548173ffffffffffffffffffffffffffffffffffffffff021916908373ffffffffffffffffffffffffffffffffffffffff160217905550916020019190600101906114f1565b5b509050611557919061155b565b5090565b5b8082111561157457600081600090555060010161155c565b5090565b600080fd5b600080fd5b6000819050919050565b61159581611582565b81146115a057600080fd5b50565b6000813590506115b28161158c565b92915050565b600080fd5b600080fd5b600080fd5b60008083601f8401126115dd576115dc6115b8565b5b8235905067ffffffffffffffff8111156115fa576115f96115bd565b5b602083019150836001820283011115611616576116156115c2565b5b9250929050565b60008060008060006080868803121561163957611638611578565b5b6000611647888289016115a3565b9550506020611658888289016115a3565b9450506040611669888289016115a3565b935050606086013567ffffffffffffffff81111561168a5761168961157d565b5b611696888289016115c7565b92509250509295509295909350565b6000819050919050565b6116b8816116a5565b81146116c357600080fd5b50565b6000813590506116d5816116af565b92915050565b6000602082840312156116f1576116f0611578565b5b60006116ff848285016116c6565b91505092915050565b61171181611582565b82525050565b600060208201905061172c6000830184611708565b92915050565b600073ffffffffffffffffffffffffffffffffffffffff82169050919050565b600061175d82611732565b9050919050565b61176d81611752565b811461177857600080fd5b50565b60008135905061178a81611764565b92915050565b600080604083850312156117a7576117a6611578565b5b60006117b5858286016116c6565b92505060206117c68582860161177b565b9150509250929050565b60006117db82611732565b9050919050565b6117eb816117d0565b82525050565b600060208201905061180660008301846117e2565b92915050565b611815816116a5565b82525050565b600081519050919050565b600082825260208201905092915050565b60005b8381101561185557808201518184015260208101905061183a565b83811115611864576000848401525b50505050565b6000601f19601f8301169050919050565b60006118868261181b565b6118908185611826565b93506118a0818560208601611837565b6118a98161186a565b840191505092915050565b6118bd81611752565b82525050565b60008115159050919050565b6118d8816118c3565b82525050565b600060e0820190506118f3600083018a61180c565b8181036020830152611905818961187b565b905061191460408301886118b4565b6119216060830187611708565b61192e6080830186611708565b61193b60a0830185611708565b61194860c08301846118cf565b98975050505050505050565b60008160601b9050919050565b600061196c82611954565b9050919050565b600061197e82611961565b9050919050565b61199661199182611752565b611973565b82525050565b6000819050919050565b6119b76119b282611582565b61199c565b82525050565b60006119c98288611985565b6014820191506119d98287611985565b6014820191506119e982866119a6565b6020820191506119f982856119a6565b602082019150611a0982846119a6565b6020820191508190509695505050505050565b82818337600083830152505050565b6000611a378385611826565b9350611a44838584611a1c565b611a4d8361186a565b840190509392505050565b600060c082019050611a6d600083018a61180c565b611a7a60208301896118b4565b611a876040830188611708565b611a946060830187611708565b611aa16080830186611708565b81810360a0830152611ab4818486611a2b565b905098975050505050505050565b7f4e4f5420454e4f55474800000000000000000000000000000000000000000000600082015250565b6000611af8600a83611826565b9150611b0382611ac2565b602082019050919050565b60006020820190508181036000830152611b2781611aeb565b9050919050565b7f414c52454144592048415050454e454400000000000000000000000000000000600082015250565b6000611b64601083611826565b9150611b6f82611b2e565b602082019050919050565b60006020820190508181036000830152611b9381611b57565b9050919050565b7f54686973206576656e7420686173207265616368656420636170616369747900600082015250565b6000611bd0601f83611826565b9150611bdb82611b9a565b602082019050919050565b60006020820190508181036000830152611bff81611bc3565b9050919050565b7f4e487b7100000000000000000000000000000000000000000000000000000000600052603260045260246000fd5b7f414c524541445920434f4e4649524d4544000000000000000000000000000000600082015250565b6000611c6b601183611826565b9150611c7682611c35565b602082019050919050565b60006020820190508181036000830152611c9a81611c5e565b9050919050565b7f4e487b7100000000000000000000000000000000000000000000000000000000600052601160045260246000fd5b600060ff82169050919050565b6000611ce882611cd0565b915060ff821415611cfc57611cfb611ca1565b5b600182019050919050565b6000604082019050611d1c600083018561180c565b611d2960208301846118b4565b9392505050565b7f4e4f5420415554484f52495a4544000000000000000000000000000000000000600082015250565b6000611d66600e83611826565b9150611d7182611d30565b602082019050919050565b60006020820190508181036000830152611d9581611d59565b9050919050565b7f4e4f205253565020544f20434f4e4649524d0000000000000000000000000000600082015250565b6000611dd2601283611826565b9150611ddd82611d9c565b602082019050919050565b60006020820190508181036000830152611e0181611dc5565b9050919050565b7f414c524541445920434c41494d45440000000000000000000000000000000000600082015250565b6000611e3e600f83611826565b9150611e4982611e08565b602082019050919050565b60006020820190508181036000830152611e6d81611e31565b9050919050565b7f414c52454144592050414944204f555400000000000000000000000000000000600082015250565b6000611eaa601083611826565b9150611eb582611e74565b602082019050919050565b60006020820190508181036000830152611ed981611e9d565b9050919050565b600081905092915050565b50565b6000611efb600083611ee0565b9150611f0682611eeb565b600082019050919050565b6000611f1c82611eee565b9150819050919050565b7f4e487b7100000000000000000000000000000000000000000000000000000000600052603160045260246000fd5b7f4661696c656420746f2073656e64204574686572000000000000000000000000600082015250565b6000611f8b601483611826565b9150611f9682611f55565b602082019050919050565b60006020820190508181036000830152611fba81611f7e565b9050919050565b7f4e487b7100000000000000000000000000000000000000000000000000000000600052602260045260246000fd5b6000600282049050600182168061200857607f821691505b6020821081141561201c5761201b611fc1565b5b50919050565b7f414c524541445920504149440000000000000000000000000000000000000000600082015250565b6000612058600c83611826565b915061206382612022565b602082019050919050565b600060208201905081810360008301526120878161204b565b9050919050565b600061209982611582565b91506120a483611582565b9250827fffffffffffffffffffffffffffffffffffffffffffffffffffffffffffffffff038211156120d9576120d8611ca1565b5b828201905092915050565b7f544f4f204541524c590000000000000000000000000000000000000000000000600082015250565b600061211a600983611826565b9150612125826120e4565b602082019050919050565b600060208201905081810360008301526121498161210d565b9050919050565b7f4d555354204245204556454e54204f574e455200000000000000000000000000600082015250565b6000612186601383611826565b915061219182612150565b602082019050919050565b600060208201905081810360008301526121b581612179565b9050919050565b60006121c782611582565b91506121d283611582565b9250828210156121e5576121e4611ca1565b5b828203905092915050565b60006121fb82611582565b915061220683611582565b9250817fffffffffffffffffffffffffffffffffffffffffffffffffffffffffffffffff048311821515161561223f5761223e611ca1565b5b828202905092915050565b600060208201905061225f600083018461180c565b9291505056fea264697066735822122034a4286e8ed65454ff5fe17a8c99c009d1da82a4d28737ad658ba27e2dbe4b8164736f6c63430008090033",
    "linkReferences": {},
    "deployedLinkReferences": {}
}